:020000040800F2
:10000000680C00209D010008A1010008A301000860
:10001000A5010008A7010008A901000800000000D0
:10002000000000000000000000000000AB0100081C
:10003000AD01000800000000AF010008B101000898
:10004000B3010008B3010008B3010008B3010008C0
:10005000B3010008B3010008B3010008B3010008B0
:10006000B3010008B3010008B3010008B3010008A0
:10007000B3010008B3010008B3010008B301000890
:10008000B3010008B3010008B3010008B301000880
:10009000B3010008B3010008B3010008B301000870
:1000A000B3010008B3010008B3010008B301000860
:1000B0005B10000873100008B3010008B3010008CA
:1000C000B3010008B3010008B3010008B301000840
:1000D000B3010008B30100086D560008B301000821
:1000E000BF200008B3010008B301000800F002F8C7
:1000F00000F03FF80AA090E8000C82448344AAF183
:100100000107DA4501D100F034F8AFF2090EBAE880
:100110000F0013F0010F18BFFB1A43F0010318473B
:10012000E0A0000000A10000103A24BF78C878C108
:10013000FAD8520724BF30C830C144BF04680C60ED
:10014000704700000023002400250026103A28BF35
:1001500078C1FBD8520728BF30C148BF0B60704739
:10016000642905F05F87002070471FB51FBD10B5DB
:1001700010BD06F027F91146FFF7F7FF00F02AF847
:1001800006F045F903B4FFF7F2FF03BC00F026FACE
:1001900030BF72B662B680F30888704708480047DF
:1001A000FEE7FEE7FEE7FEE7FEE7FEE7FEE7FEE727
:1001B000FEE7FEE703480449044A054B7047000088
:1001C000ED00000868060020680C00206808002088
:1001D00068080020092000F0A8F9482000F048F83D
:1001E000022000F08DF9012000F08AF900F09DFD59
:1001F00000F07EFF00F082FA00F0B7FC4FF4FA3115
:10020000482000F014FA4FF41651242005F0BCF9F0
:1002100000F036FE00F08CFE05F02CFB4FF4FA7077
:1002200000F05EF805F014FC01F065F901F077F9D3
:1002300000F034FF14E00B48007820B904F0B3FF5D
:1002400004F066FE01E005F03FF801200649087061
:1002500000200649087000BF034800780028FBD141
:10026000E9E7000001000020250000202400002014
:100270004FF0E021096921F004014FF0E022116103
:10028000C21700EB5272C2F3C702234B1A70194611
:10029000097801EB4102C2EBC1114FF6FF7202EA8D
:1002A000C1011E4A1180704701461B4A12784A4319
:1002B0004FF0E0235A6100229A6101221A6100BFC7
:1002C0004FF0E022106900F001021AB100F4803210
:1002D000002AF5D000224FF0E0231A619A6170479E
:1002E00001460E4A12884A434FF0E0235A61002229
:1002F0009A6101221A6100BF4FF0E022106900F0FC
:1003000001021AB100F48032002AF5D000224FF029
:10031000E0231A619A6170474C0000204E000020D3
:10032000A34A0A400243A34B1A60704701460723C1
:1003300023EA010212029F4B1B1D18684FF6FF03B0
:1003400018409D4B184310439A4B1B1D1860704773
:100350002DE9F0410746884614461D462846FFF71A
:10036000E5FFC5F1040007FA00F60F20284100EA76
:100370000800064306F00F06E21704EBD2625211A2
:10038000920002F1E022D2F800212146E31704EBAB
:10039000D3635B11A4EB431C012303FA0CF31A4350
:1003A0002046E31704EBD3635B119B0003F1E023CA
:1003B000C3F800218148005D40EA06107F490855D6
:1003C000BDE8F08170B504460B46CE1701EB96767A
:1003D000C6F38700CE1701EB9676B610A1EB860622
:1003E000B606350E764B9B6943F00103744EB3613C
:1003F0004FEAB63353F820300F26AE40B343714E68
:1004000046F82030334653F8203004FA05F61E43F0
:100410006C4B43F820606C4B1B6801268E403343C5
:10042000694E336002F0010343B1674B0C331B6824
:1004300001268E403343644E0C36336002F00203D3
:1004400043B1614B08331E6801238B401E435E4B52
:1004500008331E6070BD00B5002059490861C860AE
:100460001420486100208861C8610846006840F097
:1004700001000860084640685449084050494860F7
:1004800008460068524908404D490860084600681F
:1004900020F4802008600846406820F4FE00486090
:1004A0000020886000214FF00060FFF739FF00BD99
:1004B00010B540480830006840F004003D4908315C
:1004C00008603F48C06940F080503D49C8614148DC
:1004D000406840F480703F4948600846006840F03A
:1004E000040008600846006840F002000860FFF75A
:1004F0004FFE10BD3048001D2E49091D0860704791
:10050000014649062E4A926942F001022C4B9A613B
:100510002C4A083A526822F0E0622A4B083B5A60A3
:100520001A4652680A435A60704730B5044600259F
:10053000FFF791FF2248006840F4803020490860AE
:1005400000BF1F480068400C0028FAD04FF48060BC
:100550001B494860A01EC4B20846406840EA844077
:1005600048600846406840F4803048601A48006897
:1005700040F03200184908601148006840F080706F
:100580000F49086000BF0E480068400E0028FAD0EE
:100590000B48406840F002000949486005E00848FF
:1005A0004068C0F3870505F00305022DF7D130BD83
:1005B00080FFFF1F08ED00E00000FA0500E400E006
:1005C0000010024008000140000401400000FFF854
:1005D000FFFFF6FE0070004000200240014600BF11
:1005E0007047404A12785AB900BF3F4A128802F059
:1005F0004002002AF9D0C2B23B4B1B1D1A800AE010
:1006000000BF3A4A128802F04002002AF9D0C2B272
:10061000364B1B1D1A8070473449091D088000BFE6
:100620003249098801F040010029F9D070472DE9CD
:10063000F05F05460E46300107F068FF81462C4901
:1006400005FB01F007F062FF8246494607F014FE01
:100650000746384607F022FF84B2204607F056FFCF
:100660008346394608F097F882464FF0834107F0F9
:1006700095FF814607F012FF80464FF6FF7000EAB3
:10068000041404EB080084B21A48806940F00400A6
:10069000184988610846806940F48040886116489E
:1006A000006820F47F60144908600846006840F440
:1006B0000B6008600F48C06840F480400D49C86076
:1006C0000846C06820F48040C860084808300480AC
:1006D000001D008842F20C01084304490C310880D7
:1006E000BDE8F09F010000200044004000380140B8
:1006F00040420F0000100240040801405648806943
:1007000040F00400544988615448006820F47000A7
:10071000524908600846006840F4000008604F48ED
:100720000C30006840F020004C490C3108607047E4
:1007300001464B48006828B94A480088401C494A8D
:10074000108002E00020474A10804548006828B920
:100750004548007810B90120434A1070434800789A
:10076000B0B941480078012807D141480078401CC1
:100770003F4A107001203D4A10703D480078022821
:1007800006D100203A4A10703A4A10800220704781
:1007900033480068012804D10020334A1070334ADE
:1007A00010703348007801281CD132480088401C62
:1007B000304A10801046008888420ADD29480088A7
:1007C000884206DA00202A4A10702A4A1080012046
:1007D000DDE724480088884204DD0020244A1070A8
:1007E000244A10800020D2E72348007838B11C4802
:1007F000006820B90020204908700120704718487F
:100800000068012801D11C4908700020F6E71B4848
:10081000008840B91248006828B919480088401C6F
:100820001749088002E00020154908801448008814
:10083000C82807DD012011490880002010490880E0
:10084000012070470D480088012802D100200B4983
:1008500008800020F5E70000001002400008014079
:10086000140121425A0000205400002055000020AD
:1008700056000020580000205C000020600000208E
:100880005E00002010B50A461AB10123FE4C236019
:1008900002E00023FC4C2360002114E00023FB4C09
:1008A000236000F080031BB10123241F236003E0B9
:1008B0000023F64C241F23600123F44C23604306DD
:1008C000180E4B1CD9B20829E8DB0123EE4C23603B
:1008D00010BD30B500241CE004F1B001C8B2002105
:1008E000FFF7D0FF00210846FFF7CCFF00211020C2
:1008F000FFF7C8FF002508E0E54901EBC501085DE9
:100900000121FFF7BFFF681CC5B2802DF4DB601C1E
:10091000C4B2082CE0DB30BD00B500218D20FFF70C
:10092000B1FF00211420FFF7ADFF0021AF20FFF73A
:10093000A9FF00BD00B500218D20FFF7A3FF002116
:100940001020FFF79FFF0021AE20FFF79BFF00BDA7
:1009500030B500240CE0002506E00020CC4901EB76
:10096000C5010855681CC5B2802DF6DB601CC4B2F9
:10097000082CF0DBFFF7ADFF30BDF0B514460026C4
:100980007F2801DC3F2900DDF0BD0B46CF1701EBCE
:100990005777FF10C7F10707FAB2CF1701EB577768
:1009A000FF10A1EBC707FDB2C5F107070123BB404C
:1009B000DEB24CB1B64B03EBC0039B5C3343B44F88
:1009C00007EBC007BB5408E0B14B03EBC0039B5CD3
:1009D000B343AF4F07EBC007BB5400BFD4E72DE9CB
:1009E000F04F80460C4615461E46A346A5F1200052
:1009F000C5B200273EE00C2E07D105EB4500A54906
:100A000001EB800010F8079004E0A34800EB05100C
:100A100010F807904FF0000A26E009F0800028B196
:100A200021464046099AFFF7A8FF09E0099808B94E
:100A3000012000E00020024621464046FFF79DFFCE
:100A40004FEA49604FEA1069601CC4B2A4EB0B0086
:100A5000B04205D15C4608F1010000F0FF0806E055
:100A60000AF1010000F0FF0ABAF1080FD5DB00BF60
:100A7000781CC7B2B742BEDBBDE8F08F10B50246A6
:100A8000012000E050430B1EA1F10104E1B2F9D1B5
:100A900010BD2DE9FF4F81B0074691461E460E9DC1
:100AA0004FF0000A002439E0301B401EC1B20A207A
:100AB000FFF7E4FFB9FBF0F00A21B0FBF1F201FB14
:100AC0001208BAF1000F16D1701EA04213DDB8F162
:100AD000000F0ED10120AB4605EBDB71491001FB85
:100AE00004710090C8B22B4620220299FFF777FFCD
:100AF00012E04FF0010A0120AB4605EBDB71491013
:100B000001FB04710090C8B208F13001CAB22B4653
:100B10000299FFF764FF00BF601CC4B2B442C3DB9C
:100B200005B0BDE8F08F78B505460E46144618E0CE
:100B30007A2D03DD002506F11000C6B23A2E04DD41
:100B4000002005460646FFF703FF012000902278AB
:100B50000C2331462846FFF742FF05F10800C5B2D5
:100B6000641C20780028E3D178BD10B54B4880691B
:100B700040F00800494988614948006849490840EF
:100B800047490860084600684749084344490860E7
:100B90004248806940F00400404988614348006849
:100BA00020F07040414908600846006840F000505D
:100BB000086000203549083908606420FFF790FB81
:100BC00001203B49C1F88C010021AE20FFF75AFEFD
:100BD0000021D520FFF756FE00215020FFF752FEDE
:100BE0000021A820FFF74EFE00213F20FFF74AFE1C
:100BF0000021D320FFF746FE00210846FFF742FE02
:100C000000214020FFF73EFE00218D20FFF73AFE35
:100C100000211420FFF736FE00212020FFF732FECE
:100C200000210220FFF72EFE0021A120FFF72AFE5F
:100C30000021C020FFF726FE0021DA20FFF722FE68
:100C400000211220FFF71EFE00218120FFF71AFE6F
:100C50000021EF20FFF716FE0021D920FFF712FE3A
:100C60000021F120FFF70EFE0021DB20FFF70AFE36
:100C700000213020FFF706FE0021A420FFF702FE2E
:100C80000021A62016E00000BC01214294812142EF
:100C90000401002086890008FA8D00080010024037
:100CA000000C0140FF0F00FF00202200040801405B
:100CB00000802142FFF7E6FD0021AF20FFF7E2FDB3
:100CC000FFF746FE10BD00006348806940F0040055
:100CD000614988610846806940F0080088615F4882
:100CE00000685F4908405D490860084600685D4942
:100CF00008435A4908605C48006820F07F405A4920
:100D000008600846006840F03B400860081D006825
:100D1000564908405449091D08600846006854496E
:100D200008435149091D0860704700B5FFF7CCFF23
:100D30004948806940F40060474988610846C069B5
:100D400040F00400C86142F20F704A4908809020C8
:100D5000091F088047481038008840F4C0404549C2
:100D6000103908800846008840F400600880081D9B
:100D7000008840F48050091D08803E4818300088E3
:100D800040F400403B4918310880802039492C3913
:100D900008800846008840F00100088040F2EE20FC
:100DA00034491431088041F61F403349088000203F
:100DB000091F088030481038008840F4C0402E4990
:100DC000103908800846008840F060000880081F3D
:100DD000008840F4C040091F08800846008840F0A1
:100DE00060000880081D008840F40060091D08802C
:100DF0000846008840F008000880081F008840F47A
:100E00000060091F08800846008840F0080008803C
:100E100019480C38008840F4805017490C39088074
:100E20000846008840F4807008800846008840F03A
:100E3000100008800846008840F0010008808020EB
:100E40000D492C3908800846008840F001000880D0
:100E500000200A49086000BD00100240040801405B
:100E6000F00FF0FF02B00200000C014000FF0F0085
:100E7000BB0020222C2C01402C080040B001214254
:100E800010B58248C06940F001008049C861084639
:100E9000806940F0040088617D48006820F0FF0010
:100EA0007B4908600846006840F044000860C804B8
:100EB000808940F00100C90488810846808940F09B
:100EC0004000888101231C2203211846FFF740FAC5
:100ED00000204FF0804108854FF6FF708885084656
:100EE000008820F4407008800846008820F06000E8
:100EF00008800846008B40F0010008830846008BFC
:100F000040F4807008830846008C20F002000884BA
:100F10000846008C20F0200008840846008940F034
:100F2000030008810846008840F00100088010BDD9
:100F300010B55648C06940F002005449C8610846DF
:100F4000806940F0040088615148006820F07F40CB
:100F50004F4908600846006840F0884008604D48E6
:100F6000008840F001004B4908800846008840F0A6
:100F70004000088001231D2203211846FFF7E8F9ED
:100F8000002044491C3108804FF6FF70091D08807D
:100F900040480C38008820F440703E490C390880E5
:100FA0000846008820F0600008803A480C3000882D
:100FB00040F0010037490C3108800846008840F4B1
:100FC0008070088033481430008820F002003149D6
:100FD000143108800846008820F0200008802D4841
:100FE0000C30008840F030002A490C310880294834
:100FF000001F008840F003002649091F088025488B
:101000000C38008840F0010022490C39088010BDDE
:101010000146022904D003290BD0042919D111E07B
:101020004FF08042928C10B200224FF080439A849D
:1010300011E0184A1832128810B20022154B1833EA
:101040001A8008E0144A128810B20022124B1A804B
:1010500001E0002000BF00BF70474FF08040008AD1
:101060004FF08040008A20F001004FF0804108825C
:1010700070470848001D00880648001D008820F0C1
:1010800001000449091D088070470000001002405B
:10109000000801400C0400402408004010B512482C
:1010A000806940F00800104988611048006820F409
:1010B00070200E4908600846006840F4002008606F
:1010C0000A480830006840F4805008490831086038
:1010D00001220C211046FFF775F902232822012175
:1010E0001846FFF735F910BD00100240040C01400E
:1010F0001748806940F00400154988611548006868
:1011000020F47020134908600846006840F440301D
:10111000086010480C30006840F010000D490C3198
:101120000860704718B900210B4A11600FE00B49A5
:101130000968491C094A1160814208D106490968B9
:10114000C943074AC2F890110021044A1160704750
:10115000001002400008014090012142640000207C
:1011600000002142014691F90020002A01DD002003
:101170001EE091F90020002A01DA042018E091F91C
:101180000120002A01DD012012E091F90120002A4E
:1011900001DA05200CE091F90220002A01DD02208D
:1011A00006E091F90220002A01DA062000E007207B
:1011B000704770B505462846FFF7D4FF0446E81C83
:1011C000FFF7D0FF44EAC00084B2A81DFFF7CAFFB2
:1011D00044EA801084B2204670BD70B588B002A980
:1011E00005A802F068FD0446072C3FD101A801F0D4
:1011F000D7FF059807F072F90646019907F0CEF976
:10120000054607F02FF90590069807F067F906469E
:10121000019907F0C3F9054607F024F906900798ED
:1012200007F05CF90646019907F0B8F9054607F0A2
:1012300019F9079005A803F04EF8684601F0CDFFB4
:10124000BDF80010029848430290BDF800100398C2
:1012500048430390BDF8001004984843049002A846
:1012600003F0CCF8FEA004F09DFE00BF08B070BDF6
:101270002DE9F04304460D46DDE907670021012012
:1012800041E0DFF800C43CF81080A0F1010CDFF869
:10129000F49329F81C8009F1160C3CF81090A0F189
:1012A000010CDFF8E08308F1160828F81C9008F11B
:1012B000160C3CF81090A0F1010C08F1160828F863
:1012C0001C9008F1160C3CF81090A0F1010C08F1EC
:1012D000160828F81C9008F1160C3CF81090A0F1A4
:1012E000010C08F1160828F81C9008F1160C3CF8BF
:1012F0001090A0F1010C08F1160828F81C9000F1DC
:10130000010C0CF0FF000A28BBDBDFF878C3ACF857
:101310001240ACF82850ACF83E20ACF85430ACF891
:101320006A60ACF880700021002008E0DFF854C348
:101330003CF910C0614400F1010C0CF0FF000A28D8
:10134000F4DB4FF00A0C91FBFCFC0FFA8CFCDFF88D
:101350003483A8F814C0002100200AE0DFF824C379
:101360000CF1160C3CF910C0614400F1010C0CF0BA
:10137000FF000A28F2DB4FF00A0C91FBFCFC0FFA8D
:101380008CF8DFF800C3ACF82A80002100200AE0C6
:10139000DFF8F0C20CF12C0C3CF910C0614400F1F4
:1013A000010C0CF0FF000A28F2DB4FF00A0C91FB55
:1013B000FCFC0FFA8CF8DFF8CCC2ACF840800021BE
:1013C00000200AE0DFF8BCC20CF1420C3CF910C06E
:1013D000614400F1010C0CF0FF000A28F2DB4FF031
:1013E0000A0C91FBFCFC0FFA8CF8DFF898C2ACF801
:1013F0005680002100200AE0DFF888C20CF1580C6A
:101400003CF910C0614400F1010C0CF0FF000A2807
:10141000F2DB4FF00A0C91FBFCFC0FFA8CF8DFF8C2
:1014200064C2ACF86C80002100200AE0DFF854C2EE
:101430000CF16E0C3CF910C0614400F1010C0CF091
:10144000FF000A28F2DB4FF00A0C91FBFCFC0FFABC
:101450008CF8DFF830C2ACF88280BDE8F08338B594
:101460000446032302226B21D020009404F020FDC7
:1014700038BD38B50446022304221B21D020009435
:1014800004F016FD38BD38B50446022304221C21A1
:10149000D020009404F00CFD38BD10B5044623465E
:1014A00006226B21D02004F038FD10BD10B5764B1C
:1014B00001227521D02004F089FC7348007810BD0A
:1014C00010B5FFF7F3FF682801D1012010BD0020FF
:1014D000FCE710B50446234605226A21D02004F01B
:1014E0001CFD10BD10B50446234601223721D02033
:1014F00004F013FD10BD10B50220FFF7B0FF03206C
:10150000FFF7B7FF0020FFF7BEFF0020FFF7C5FF82
:101510000020FFF7DEFF0020FFF7E4FF10BD38B525
:10152000002000906B4601227521682004F0F0FB3A
:1015300001205649087056A004F034FD9DF80000C3
:1015400068280ED000BF5B48006800F4E0605A498C
:101550000843001D57490860BFF34F8F00BF00BF0D
:10156000FEE701F02AFB00283CD1782000F08DFF37
:1015700010B947A004F016FD782001F06DF910B9FC
:101580004EA004F00FFDC82001F047FA10B955A095
:1015900004F008FD02F004FE10B95CA004F002FDA6
:1015A0006748FFF706FE044602F004FE10B965A086
:1015B00004F0F8FC40F2731003F03DFA10B96BA090
:1015C00004F0F0FCC82002F0AFFF10B971A004F0E5
:1015D000E9FCFFF702FE012002F028FB10B976A01B
:1015E00004F0E0FC00202949087038BD2DE9F04FD7
:1015F0008FB00CA879490DAB08AACDE90010784945
:10160000784803F077FB7548008800F48070002864
:1016100024D0089806F062FF04464FF09D4106F082
:101620002BFE71490860099806F058FF04464FF0F8
:101630009D4106F021FE6D4908600A9806F04EFFB4
:1016400004464FF09D4106F017FE694908600B986B
:1016500006F044FF04464FF09D41CBE0A6E10000B8
:1016600073657474696E6720626961732073756352
:1016700063657366756C6C79202E2E2E2E2E2E0DC2
:101680000A000000120500200405002001000020CF
:101690006D70755F7365745F73656E736F722063D1
:1016A0006F6D706C657465202E2E2E2E2E2E0D0AF9
:1016B000000000000CED00E00000FA056D70755FA1
:1016C000636F6E6669677572655F6669666F2063D2
:1016D0006F6D706C657465202E2E2E2E2E2E0D0AC9
:1016E000000000006D70755F7365745F73616D70ED
:1016F0006C655F7261746520636F6D706C65746595
:10170000202E2E2E2E2E2E0D0A000000646D705FEE
:101710006C6F61645F6D6F74696F6E5F6472697620
:1017200065725F6669726D7761726520636F6D7057
:101730006C657465202E2E2E2E2E2E0D0A000000B4
:1017400088000020646D705F7365745F6F726965F7
:101750006E746174696F6E20636F6D706C65746513
:10176000202E2E2E2E2E2E0D0A000000646D705F8E
:10177000656E61626C655F66656174757265206334
:101780006F6D706C657465202E2E2E2E2E2E0D0A18
:1017900000000000646D705F7365745F6669666F5A
:1017A0005F7261746520636F6D706C657465202E67
:1017B0002E2E2E2E2E0D0A006D70755F7365745FD0
:1017C000646D705F737461746520636F6D706C65B8
:1017D0007465202E2E2E2E2E2E0D0A007400002051
:1017E0006E00002068000020780000207C000020AF
:1017F0008000002006F040FD8949086089480168A2
:101800004FF0804006F0CAFE0690874801680698AF
:1018100006F0C4FE8246854801684FF0404006F05D
:10182000BDFE06907E480168069806F0B7FE834626
:10183000514606F0B3FC079006F084FC804604F0A5
:101840007BFE06464FF06632794B06F06BF9044694
:1018500005F08CFE77490860734801684FF08040BE
:1018600006F09CFE039070480168039806F096FE0F
:1018700082466E4801684FF0404006F08FFE0390AC
:101880006A480168039806F089FE8346514606F0CF
:101890008DFF81464FF07E5106F080FC044606F035
:1018A00051FCCDE904015F4801684FF0804006F02B
:1018B00075FE83465D480168584606F06FFE814616
:1018C000594801684FF0804006F068FE834654484E
:1018D0000168584606F062FE8246494606F05EFC04
:1018E000044606F02FFC0746DDE9042305F06CF8FA
:1018F0004FF066324E4BCDE9060106F013F905466E
:1019000005F034FE4C49086045480168006806F05F
:1019100045FE039044480168006806F03FFE0290CF
:1019200042480168006806F039FE83463D48016878
:10193000006806F033FE5946019006F02FFC8246FF
:10194000029906F033FF8146039906F02FFF044603
:1019500006F0F8FBCDE90401314801683148006820
:1019600006F01CFE8246304801683048006806F0E8
:1019700015FE8346514606F011FC81464FF080412A
:1019800006F00CFE044606F0DDFB0746DDE9042305
:1019900005F01AF84FF06632254BCDE9060106F046
:1019A000C1F8054605F0E2FD244908600FB0BDE826
:1019B000F08F2DE9F05F4221D02004F0E4F90546D4
:1019C0004121D02004F0DFF905EB0024204606F089
:1019D00085FD82464FF08E41504606F0ABFE05D2A3
:1019E0004FF08F41504606F0E1FE824614495046C2
:1019F00006F042FC834606F0A5FB8046114A124BD6
:101A000005F0E6FD06460022104B06F08BF8044672
:101A100005F0ACFD8246504606F024FDBDE8F09F7F
:101A20008400002078000020800000207C0000203E
:101A300066A64C40280000202C000020300000202A
:101A40000000AA43A4703D0AD7434240000024404E
:101A50000146002901DA4A4200E00A4690B2704786
:101A60002DE9F04704460D461646002C08DD4FF4DC
:101A7000E150FD490880C4F5E150091D088008E0E7
:101A80004FF4E150F849091D088004F5E150091FA1
:101A90000880002D07DD0120F44908600020F4498A
:101AA000C1F8B40107E00120F049091F08600020D7
:101AB000EF49C1F8B8012846FFF7CAFFEA490839DB
:101AC0000880EC48B0F90400322190FBF1F8404660
:101AD00006F004FD074606F2B22006F0FFFC814640
:101AE000394606F063FE804606F0D8FCE2490880DD
:101AF000BDE8F0872DE9F04107460D46DF48007844
:101B0000012827D0DE49DF48006806F04FFE064670
:101B1000DD480168304606F00DFE1BD3D849D94890
:101B2000006806F03BFB0646D7480168304606F0E1
:101B300001FD0FD340F24C4085420BDBD349D44822
:101B4000006806F0F7FD05D3D249D148006806F0D9
:101B5000F1FC14D20120C949087001240020CE49AB
:101B60000860C14908390880C149C1F8B801BF49B6
:101B7000091F086040F2B220BF49088003E001203D
:101B8000C549086000242046BDE8F08170B50446D0
:101B90000D46604206F0A2FC0646C0480168304689
:101BA00006F0C8FD04D2604206F098FCBB4908600C
:101BB000204606F093FC0646B8480168304606F019
:101BC000B9FC04D2204606F089FCB44908606042A2
:101BD00006F084FC0646B2480168304606F0AAFDCD
:101BE00004D2604206F07AFCAD490860204606F057
:101BF00075FC0646AA480168304606F09BFC04D2F4
:101C0000204606F06BFCA6490860684206F066FCB8
:101C10000646A4480168304606F08CFD04D26842AE
:101C200006F05CFC9F490860284606F057FC064613
:101C30009C480168304606F07DFC04D2284606F038
:101C40004DFC9849086070BD2DE9F14F009806F0F1
:101C500045FC954908609548006806F073FA064609
:101C60004FF06632924B05F05DFF044605F07EFCB6
:101C70008E4908608C48006806F064FA80464FF090
:101C800033328C4B05F04EFF04460D468748006802
:101C900006F058FA064622462B4605F099FC824685
:101CA00005F064FC814908600846016882480068C4
:101CB00006F074FA80490860804801687E48006830
:101CC00006F06CFA7C4908607D497B48006806F0A4
:101CD00031FD02D27A48784908607A49764800682E
:101CE00006F028FC02D27748734908606348007800
:101CF00010B1002070490860734801686E480068A0
:101D000006F04CFC0446714801686848006806F01B
:101D100045FC0546214606F041FA6D4908605748E2
:101D2000007808B10020086069480068BDE8F88FB5
:101D30002DE9F04705460C4652480168284606F052
:101D400035FD804663480168204606F027FC814641
:101D500041466148006806F021FC8246494606F08B
:101D60001DFA074606F07EFB0646304606F0B6FB37
:101D7000BDE8F08710B50246501A584B1860184657
:101D80000068574B1B68C01AC0EB0010534B1B6810
:101D90000F2404FB0300534B1B681844514B18607D
:101DA00018460068B0F5E15F02DD4FF4E1501860BD
:101DB0004C48006810F5E15F02DA4B48494B186067
:101DC00046480068464B18604648006810BD2DE93B
:101DD000F05F8146DFF814A1DFF814B1B9F1090F03
:101DE00041D2DFE809F0EA051B2A91A0B6C5DB0065
:101DF00059464048006806F0D9FC3E490860294829
:101E0000006806F09FF907463B4A3C4B05F09CFCF6
:101E1000054605F0ABFB23490860EBE05946354821
:101E2000006806F0C3FC3349086051461D4800684D
:101E300006F0BCFC1B490860DCE02E48006806F098
:101E400081F907462E4A2F4B05F07EFC054605F02A
:101E50008DFB2849086051461248006806F0A6FC30
:101E600010490860C6E0A8E03C080040B881214263
:101E70000080214268000020402C0140000000202A
:101E80000000F041480000202800002000007041C0
:101E90002C000020000070C1B00121421000002081
:101EA0001400002018000020A8000020B00000202E
:101EB0006666E63F3333D33FB4000020AC00002019
:101EC0000080BB440080BBC4400000203C000020D8
:101ED000A40000203800002034000020B8000020BA
:101EE000C0000020BC000020E0E3FFFFCDCC4C3F51
:101EF000CDCC4C3E0C000020295C8FC2F528F03F71
:101F00007B14AE47E17AF03F5946DD48006806F0A1
:101F100045F9DB4908605146DA48006806F046FC9E
:101F2000D849086066E05946D548006806F036F999
:101F3000D3490860D348006806F004F90746D24A3E
:101F4000D24B05F001FC054605F010FBCD490860B9
:101F500050E05946CA48006806F020F9C8490860B0
:101F60005146C848006806F019F9C649086041E0C2
:101F7000C348006806F0E6F80746C54AC54B05F0B9
:101F8000E3FB054605F0F2FABD4908605146BD483D
:101F9000006806F003F9BB4908602BE05946B848D1
:101FA000006806F003FCB64908605146B548006871
:101FB00006F0F4F8B34908601CE0B148006806F088
:101FC000C1F80746B44AB54B05F0BEFB054605F01F
:101FD000CDFAAB490860AB48006806F0B3F8054697
:101FE000A94AAA4B05F0B0FB074605F0BFFAA54980
:101FF000086000BF00BFA348006806F033FA074638
:10200000FFF726FD064606F081FA0546A44801685A
:10201000284606F0C0FB0446A249204606F08AFA8C
:1020200000D2A04C84F0004595480168284606F08F
:1020300081FB03D284F00040914908604FF0804159
:10204000204606F019F905468D480168284606F035
:1020500071FA06D24FF08041204606F00DF988490A
:10206000086091498748006806F064FA02D28E48F9
:10207000844908608D498348006806F05BFB02D202
:102080008A4880490860BDE8F09F10B53220FEF70D
:102090004FFB0446012C07D18548007808B9012080
:1020A00000E0002082490870022C07D181480078A6
:1020B00008B9012000E000207E49087010BD2DE91C
:1020C000F0417D48006800287ED14FF480507B4964
:1020D00008607B48007808B9012000E000207849BA
:1020E00008707848007801280BD177480078401CA8
:1020F000C0B2754908700A2803D1002008707149E0
:1021000008706F48007801282FD1FFF76FFA03F0AD
:1021100060FC054606F0E2F904466C48016820467A
:1021200006F03CF8694908604FF07E516848006845
:1021300006F034F8664904460860664906F05EF920
:102140000ED164496148006806F096F8044606F02E
:1021500089F96149086000205C4908605C490860B1
:10216000FFF793FF0020BDE8F0810320FEF750FF4A
:10217000044606F0B3F9594908600220FEF748FF0B
:10218000044606F0ABF956490860FFF72FFA6420C1
:10219000FEF7C8FF092003F0FAFB044606F0B6F983
:1021A0005049086050494D48006806F065F80646F9
:1021B0004E494C48006806F0F9FA07464C4906F0CB
:1021C0005BF805464B4900E058E005F0E7FF0446A0
:1021D000314606F0EBFA4849086048480078FFF7B6
:1021E000F6FD2748006806F03DF905463C480068C2
:1021F00006F038F906462946FFF7BCFD044606F00E
:102200006DF93F4908603548006806F02BF906462D
:10221000FFF71AFD04463B49B1F9020006F05EF9EA
:102220000646314638480068FFF782FD05462146DC
:1022300005F0B4FF354908606E2141F65830FFF7CC
:10224000A5FC2548016830480068FFF753FCA8B991
:102250000C48006806F006F906462948006806F0B2
:1022600001F907462948006880F00045284606F035
:10227000F9F8044632463946FFF7F2FB002072E7D0
:102280000C00002018000020295C8FC2F528F03FC8
:102290007B14AE47E17AF03F52B81E85EB51F03F18
:1022A0001C000020000060410000DCC20000DC4295
:1022B0000000002001000020308121421404014070
:1022C000980000202500002024000020A00000200D
:1022D0009C0000200000C8422000002004000020D4
:1022E000080000204400002000000C4200A023450C
:1022F0000000C443000040404800002002000020CD
:102300001400002068000020280000201000002099
:1023100038B50446FB4890F82400C0B114B102203F
:10232000009001E000200090F64A1268D17BF54A47
:10233000526810786B46012203F088FC10B14FF010
:10234000FF3038BD9DF80010EE48417423E0ED48A1
:10235000807A10B94FF0FF30F3E724B1E948407CB0
:1023600008B10020EDE714B10120009001E0002049
:102370000090E44A1268D17BE24A526810786B46BA
:10238000012203F063FC10B14FF0FF30D9E79DF854
:102390000010DC4841740020D3E738B5002419E070
:1023A000D8480068C07AA04204D0D6480068407D72
:1023B000A04200D10CE0D349496808786B4601225D
:1023C000214603F0A5FC10B14FF0FF3038BD00BF2F
:1023D000601CC4B2CB4840680079A042E0DC002019
:1023E000F4E770B504460D46C6480068C07AA042BE
:1023F00004D0C4480068407DA04202D14FF0FF30B5
:1024000070BDC04840680079A04202DC4FF0FF3048
:10241000F6E7BC49496808782B460122214603F0BB
:1024200077FCEDE738B50446B64890F82300A042A3
:1024300001D1002038BD14B13020009001E000200F
:102440000090B048807C20B19DF8000040F0020070
:102450000090AC4890F8220020B19DF8000040F0B8
:1024600080000090A74A1268117DA64A5268107831
:102470006B46012203F0EAFB10B14FF0FF30D9E7C1
:10248000A04880F823400020D4E738B5044604F083
:10249000700010B10120009005E014B10020009000
:1024A00001E040200090974A1268917C954A52685A
:1024B00010786B46012203F0C9FB20B1002191483E
:1024C0008172481E38BD9DF8000020F040018D4803
:1024D00001730020009004F0400020B99DF8000036
:1024E00040F00400009004F0200020B99DF80000A6
:1024F00040F00200009004F0100020B99DF80000A8
:1025000040F00100009004F0080020B99DF80000A0
:1025100040F0380000907B4A1268D17C794A5268BA
:1025200010786B46012203F091FB20B10021754821
:102530008172481EC6E724B1082C02D00020FFF7A4
:1025400071FF70488472002101753220FDF7C8FECA
:102550000020B7E738B504466A48807CA04201D124
:10256000002038BD002C46D0664A12681179654AB1
:10257000526810786B46012203F0CAFB10B14FF08D
:10258000FF30EEE79DF8000020F0200000905D4A4B
:10259000126811795B4A526810786B46012203F089
:1025A00055FB10B14FF0FF30DBE70320FDF798FE3D
:1025B00002200090534890F8220020B19DF80000BE
:1025C00040F0800000904F4890F8230020B19DF823
:1025D000000040F0300000904A4A1268117D494ADC
:1025E000526810786B46012203F030FB002851D06E
:1025F0004FF0FF30B5E7434A12681179414A5268FB
:1026000010786B46012203F083FB10B14FF0FF30CE
:10261000A7E73C48807A00F0010028B19DF800004F
:1026200040F02000009004E09DF8000020F0200021
:102630000090344A12681179324A526810786B4619
:10264000012203F003FB10B14FF0FF3089E70320B4
:10265000FDF746FE2B4890F8220010B18020009034
:1026600001E000200090274890F8230020B19DF859
:10267000000040F030000090224A1268117D214A8B
:10268000526810786B46012203F0E0FA10B14FF067
:10269000FF3066E71B488474002062E708B51948DC
:1026A000807A10B94FF0FF3008BD00200090154A25
:1026B0001268D17B134A526810786B46012203F0EE
:1026C000C5FA10B14FF0FF30EEE70E4A12685179AB
:1026D0000C4A526810786B46012203F0B7FA10B129
:1026E0004FF0FF30E0E7074A12681179054A526857
:1026F00010786B46012203F0A9FA28B14FF0FF30A1
:10270000D2E70000C4000020F74890F82400002819
:1027100050D00C200090F44A12681179F24A5268A5
:1027200010786B46012203F091FA10B14FF0FF30A0
:10273000BAE7C0200090EC48807A00F0010020B198
:102740009DF8000040F020000090E74A12681179DF
:10275000E54A526810786B46012203F077FA10B10F
:102760004FF0FF30A0E7E048407C10B1022000901D
:1027700001E000200090DC4A1268D17BDA4A5268FE
:1027800010786B46012203F061FA10B14FF0FF3070
:102790008AE700200090D44A12685179D24A5268E0
:1027A00010786B46012203F051FA002852D04FF006
:1027B000FF3079E704200090CB4A12681179CA4AA9
:1027C000526810786B46012203F040FA10B14FF0C6
:1027D000FF3069E7C448807C20B9C348807A00F0A4
:1027E000010010B94020009001E060200090BE4A36
:1027F00012681179BC4A526810786B46012203F0C6
:1028000025FA10B14FF0FF304EE7B748407C10B1C9
:102810000120009001E000200090B34A1268D17BB3
:10282000B14A526810786B46012203F00FFA10B1DA
:102830004FF0FF3038E7AC4A12685179AA4A526823
:102840001078A94B1033012203F000FA10B14FF0B9
:10285000FF3029E7002027E770B50446002624F062
:102860000104A14890F8240008B1002070BD9E48E2
:10287000807A10B94FF0FF30F8E79B48057C807AEA
:102880002040994908740846007CA04202D04FF0CD
:10289000FF3600E0002614B99348007D18B10120EE
:1028A000FFF736FD02E00020FFF732FD3CB1FFF7F5
:1028B000F5FE20B18C4805744FF0FF30D6E7304666
:1028C000D4E738B504468848807A10B94FF0FF3015
:1028D00038BDBC2C02DB0120009015E0622C02DB2D
:1028E0000220009010E02A2C02DB032000900BE075
:1028F000142C02DB0420009006E00A2C02DB0520E9
:10290000009001E0062000907748C07A9DF8001002
:10291000884201D10020DBE7734A12689178724A3D
:10292000526810786B46012203F090F910B14FF015
:10293000FF30CDE79DF800106B48C1720020C7E75B
:1029400038B50446282C02DD4FF0FF3038BDDCB925
:102950000020FFF767FD00208DF8000007208DF8AC
:102960000100614A1268917C5F4A526810786B4698
:10297000022203F06BF910B14FF0FF30E6E70021BF
:10298000594801750020E1E70120FFF74BFD2020A9
:102990008DF80000012C06D100208DF801000520E3
:1029A000FFF78FFF17E0052C06DC01208DF80100F2
:1029B0000520FFF786FF0EE0142C06DC02208DF8C0
:1029C00001000A20FFF77DFF05E003208DF80100DC
:1029D0001420FFF776FF9DF80100072101EB80101E
:1029E000C0B28DF80100404A1268917C3E4A52689C
:1029F00010786B46022203F029F910B14FF0FF3036
:102A0000A4E7082138488172002101730121017572
:102A10000020FFF721FF002098E738B50446324830
:102A2000807A10B94FF0FF3038BD2F4890F824005D
:102A300010B14FF0FF30F7E72B48007D50B134B1B3
:102A4000282C04DCE0B2FFF77BFF0020ECE700203D
:102A5000FFF776FF042C01DA042404E0B4F57A7F52
:102A600001DD4FF47A744FF47A7090FBF4F0401E5D
:102A7000C0B200901C4A126851781B4A5268107804
:102A80006B46012203F0E2F810B14FF0FF30CBE7C4
:102A90009DF80000401C4FF47A7191FBF0F081B278
:102AA0001148C1810146C9894810FFF70AFF00207B
:102AB000BAE738B504460C48807A10B94FF0FF30B9
:102AC00038BD022C06D0042C07D0082C08D0102CBE
:102AD0000FD10BE0002000900EE0082000900BE0EA
:102AE0001020009008E00000C40000201820009092
:102AF00002E04FF0FF30E3E700BFF948407A9DF86D
:102B00000010B0EBE10F01D10020D9E7F44A1268C0
:102B1000D179F34A526810786B46012203F096F897
:102B200010B14FF0FF30CBE79DF80000C110EC482A
:102B300041720020C4E738B50446E948807A10B9EC
:102B40004FF0FF3038BDFA2C09D0B4F5FA7F09D028
:102B5000B4F57A7F09D0B4F5FA6F0CD108E0002003
:102B600000900BE00820009008E01020009005E0A5
:102B70001820009002E04FF0FF30E3E700BFD84894
:102B8000007A9DF80010B0EBE10F01D10020D9E7E9
:102B9000D34A12689179D24A526810786B46012262
:102BA00003F054F810B14FF0FF30CBE79DF8000070
:102BB000C010CB4908720020C4E71CB580208DF8F6
:102BC0000000C74A1268917CC54A526810786B466B
:102BD000012203F03BF810B14FF0FF301CBD642020
:102BE000FDF77EFB00208DF80000BD4A1268917C45
:102BF000BB4A526810786B46012203F027F810B1E7
:102C00004FF0FF30EAE7B64A1268917DB44A526845
:102C100010786B46062203F07BF810B14FF0FF30BE
:102C2000DCE79DF80500C007400F9DF8031001F098
:102C3000010140EA41009DF8011001F0010140EA64
:102C4000010494B1012C03D10121A548C17431E0E4
:102C5000022C03D10021A248C1742BE02146A1A07F
:102C600003F0A0F94FF0FF30B8E79D4A1268D17821
:102C70009B4A526810786B46012203F049F810B164
:102C80004FF0FF30AAE79DF8000000F00F042CB9C8
:102C90009E4803F087F94FF0FF309FE7042C06D1E0
:102CA0009BA003F07FF901218D48C17402E000214F
:102CB0008B48C174FF218A488172FF2088490872BD
:102CC000FF2187484172C1724FF6FF71C181FF2118
:102CD000017481740121017380F82210002180F8B1
:102CE000231041750175163001604160816016380E
:102CF00080F8241080F82510C1844FF4FA60FFF7A3
:102D00001AFF10B14FF0FF3068E70220FFF7D1FE45
:102D100010B14FF0FF3061E72A20FFF7D2FD10B16C
:102D20004FF0FF305AE73220FFF777FE10B14FF037
:102D3000FF3053E70020FFF78FFD10B14FF0FF3059
:102D40004CE70020FFF706FC10B14FF0FF3045E7DD
:102D50000020FFF79AFB002040E770477CB504464F
:102D60000D465F48807A00F0700010B94FF0FF30D8
:102D70007CBD5B4A1268117B594A526810786B46D9
:102D8000062202F0C5FF10B14FF0FF30F0E79DF8CA
:102D900001009DF8001040EA012000B220809DF85B
:102DA00003009DF8021040EA012000B260809DF807
:102DB00005009DF8041040EA012000B2A08015B182
:102DC0002846FFF7CAFF0020D2E77CB504460D462F
:102DD0004348807A00F0080010B94FF0FF307CBD06
:102DE0003F4A1268517B3E4A526810786B46062271
:102DF00002F08EFF10B14FF0FF30F0E79DF80100B8
:102E00009DF8001040EA012000B220809DF80300E8
:102E10009DF8021040EA012000B260809DF8050094
:102E20009DF8041040EA012000B2A08015B12846A8
:102E3000FFF793FF0020D2E72DE9FE4F05460C4631
:102E40002748807A18B94FF0FF30BDE8FE8F244A3A
:102E50001268917B224A5268107802AB022202F07B
:102E600057FF10B14FF0FF30EFE79DF809009DF8D4
:102E7000081040EA012006B214B12046FFF76DFFAA
:102E800017494968C88805F041FB15490190496810
:102E9000B1F9080005F022FB8346304605F01EFB21
:102EA0005946009005F082FC8246019905F0E4F94C
:102EB00081461F4905F072F980464FF08F4105F0B9
:102EC0006DFB074605F0CEFA28600020BDE710B57F
:102ED00088B004461CB94FF0FF3008B010BD29E09F
:102EE000C4000020556E737570706F727465642035
:102EF000736F6674776172652070726F6475637446
:102F0000207265762025642E0A000000B0A100081A
:102F100048616C662073656E73697469766974794B
:102F2000207061727420666F756E642E0D0A000049
:102F300000000C42206830B9606820B9A06810B960
:102F4000002008B010BDFA494968087806AB032292
:102F5000114602F0DDFE10B14FF0FF30F1E79DF8B1
:102F60001800082101EB201000F00F00ADF8000060
:102F70009DF8190001EB201000F00F00ADF80200E1
:102F80009DF81A0001EB201000F00F00ADF80400CE
:102F900020684100BDF90000403091FBF0F000B224
:102FA000ADF8100060684100BDF90200403091FBAF
:102FB000F0F000B2ADF81200A0684100BDF90400C5
:102FC000403091FBF0F000B2ADF81400D8494968E8
:102FD000087806AB0622114602F09AFE10B14FF0B7
:102FE000FF30AEE79DF819009DF8181040EA012067
:102FF00000B2ADF808009DF81B009DF81A1040EAD9
:10300000012000B2ADF80A009DF81D009DF81C10CB
:1030100040EA012000B2ADF80C00BDF81000BDF888
:103020000810084400B2ADF81000BDF81200BDF859
:103030000A10084400B2ADF81200BDF81400BDF843
:103040000C10084400B2ADF81400BDF81000000ADE
:103050008DF81800BDF81000C0B28DF81900BDF849
:103060001200000A8DF81A00BDF81200C0B28DF8E7
:103070001B00BDF81400000A8DF81C00BDF81400F8
:10308000C0B28DF81D00AA494968087806AB06222F
:10309000114602F0DBFD10B14FF0FF3051E7002088
:1030A0004FE70146A248007A30B1012807D0022834
:1030B00009D003280FD10AE0FA2008800EE04FF46F
:1030C000FA7008800AE04FF47A70088006E04FF446
:1030D000FA60088002E00020088000BF00BF0020E6
:1030E000704701469248407A30B1012807D0022843
:1030F00008D003280CD108E0022008700BE004205F
:10310000087008E00820087005E01020087002E050
:103110004FF0FF30704700BF8548C07C18B1087879
:103120004006000E08700020F4E701468048C07A8F
:10313000082817D2DFE800F01704070A0D1013184B
:10314000BC20088013E06220088010E02A2008805C
:103150000DE0142008800AE00A20088007E005201E
:10316000088004E000BF00BF0020088000BF00BF4F
:103170000020704701466E4890F8240010B14FF0CF
:10318000FF3070476A48C08908800020F9E701468F
:1031900000200880401E704701464FF0FF30704706
:1031A00001466348007A30B1012807D0022808D0D0
:1031B00003280CD108E05F4808600BE05E48086017
:1031C00008E05E48086005E05D48086002E04FF0F6
:1031D000FF30704700BF0020FBE701465448407AAB
:1031E00030B1012808D002280AD0032810D10BE002
:1031F0004FF4804008800EE041F69C7008800AE0A1
:103200004FF48050088006E04FF40060088002E030
:103210004FF0FF30704700BF4548C07C10B10888B0
:10322000401008800020F5E701464148007C087006
:103230000020704701463E48807A10B10120087096
:1032400001E0002008700020704738B50446384877
:10325000807A10B94FF0FF3038BD354A1268117CC2
:10326000334A526810786B46022202F051FD10B1C9
:103270004FF0FF30F0E79DF801009DF8001040EAA4
:10328000012000B220800020E6E72DE9FE4F07462E
:10329000884692461D46DDF830B0002600242448BA
:1032A00090F8240010B1601EBDE8FE8F0020287049
:1032B0001F48807A10B94FF0FF30F5E71C48007CBA
:1032C00010B94FF0FF30EFE71948007C00F04000E4
:1032D00008B1B01CC6B21648007C00F0200008B14E
:1032E000B01CC6B21248007C00F0100008B1B01C3F
:1032F000C6B20F48007C00F0080008B1B01DC6B28D
:103300000B4A1268917A0A4A526810786B46022278
:1033100002F0FEFC10B14FF0FF30C5E79DF8010050
:103320009DF8001040EA0129B1450BDA0020BBE707
:10333000C4000020000003430000834233330342F3
:1033400033338341FC4840684088B9EB600F17DD98
:10335000F94A1268517CF84A526810786B4601228B
:1033600002F0D6FC10B14FF0FF309DE79DF8000051
:1033700000F0100020B1FFF791F96FF0010093E722
:103380005046FFF7EAFCEC4A1268D17AEA4A5268E2
:1033900010786B46324602F0BBFC10B14FF0FF30A4
:1033A00082E799FBF6F0401E8BF8000000202870A1
:1033B000B4422AD0E048007C00F0080028B3601C2A
:1033C0001DF800001DF8041040EA012000B2A8F822
:1033D0000000E01C1DF80010A01C1DF8000041EAD0
:1033E000002000B2A8F80200601D1DF80010201D8A
:1033F0001DF8000041EA002000B2A8F80400287877
:1034000040F008002870A01D84B2B44213D0CA480E
:10341000007C00F0400070B1601C1DF800001DF839
:10342000041040EA012000B23880287840F04000C3
:103430002870A01C84B2B44213D0BF48007C00F0B6
:10344000200070B1601C1DF800001DF8041040EA57
:10345000012000B27880287840F020002870A01C5D
:1034600084B2B44213D0B448007C00F0100070B1B4
:10347000601C1DF800001DF8041040EA012000B295
:10348000B880287840F010002870A01C84B200207A
:103490000AE7F8B504460F461646A74890F82400F8
:1034A00010B94FF0FF30F8BDA348807A10B94FF043
:1034B000FF30F8E7A04A1268917A9F4A5268107864
:1034C0006B46022202F024FC10B14FF0FF30EAE715
:1034D0009DF801009DF8001040EA0125A54203DA9D
:1034E00000203070401EDEE7934840684088B5EB0E
:1034F000600F17DD904A1268517C8F4A526810782D
:103500006B46012202F004FC10B14FF0FF30CAE715
:103510009DF8000000F0100020B1FFF7BFF86FF039
:103520000100C0E7E2B2844B1B68D97A824B5B682A
:1035300018783B4602F0ECFB10B14FF0FF30B2E7D9
:1035400095FBF4F0401E30700020ACE701467A484D
:1035500080F82210002070477CB5054676494968FE
:10356000087801AB04220D2102F0D2FB08B107203C
:103570007CBD9DF80700C0F301109DF8041001F018
:10358000E00140EAE1008DF800009DF80700C0F37B
:1035900081009DF8051001F0E00140EAE1008DF89E
:1035A00001009DF8070000F003009DF8061001F0EF
:1035B000E00140EAE1008DF8020000241CE01DF863
:1035C000040018B9002045F8240013E05B4845F8D2
:1035D000240006E055F82400594904F0DFFF45F8BF
:1035E00024001DF80400401EC0B20DF8040000289D
:1035F000F0D100BF601CC4B2032CE0DB0020B7E7B1
:103600002DE9FE4F06460F4600256846FFF7A4FF4A
:10361000002442E056F8240057F82410A0EB010AD9
:10362000BAF1000F01DB514601E0CAF10001084682
:1036300004F054FF83464FF08F4104F01DFE804696
:103640005DF82400002104F0D9FE16D05DF82410A6
:10365000404604F011FE82464FF07E5105F0A6F878
:10366000814629F0004A3748416A504605F062F821
:1036700012D20120A04005430EE03248C169404605
:1036800004F058FF05D32F48016A404605F052F870
:1036900002D20120A0400543641C032CBADB28465B
:1036A000BDE8FE8F2DE9FC5F06460F460025224946
:1036B0004968087801AB03220D2102F029FB10B103
:1036C0000720BDE8FC9F9DF8040000F01F008DF866
:1036D00004009DF8050000F01F008DF805009DF81E
:1036E000060000F01F008DF80600002462E056F886
:1036F000240057F82410A0EB010BBBF1000F01DBF5
:10370000594601E0CBF10001084604F0E7FE4FF016
:103710008F41009004F0B0FD814601A8005DC0B368
:103720000849086804F0F2FE83465946064804F04A
:10373000A3FD80460FE00000C40000207B14AE3ED5
:103740001D5A843F1494000800B04C45FE49404681
:1037500004F024FF804601A8005D401EC0B201A90C
:1037600008550028F2D14146484604F085FD8346BD
:103770004FF07E5105F01AF882462AF0004BF348CC
:103780008169584604F0D6FF13D20120A0400543BA
:103790000FE0FFE7ED480169484604F0CBFE05D392
:1037A000EA484169484604F0C5FF02D20120A04022
:1037B0000543641C032C9ADB284682E72DE9F04F71
:1037C00087B005460C46914601208DF81000002078
:1037D0008DF81100DE4A1268917CDD4A526810783B
:1037E00004AB022202F032FA20B14FF0FF3007B0F2
:1037F000BDE8F08FC820FCF773FD00208DF81000A5
:10380000D34A1268D17BD24A5268107804AB0122A5
:1038100002F01CFA10B14FF0FF30E8E7CC4A126812
:103820005179CB4A5268107804AB012202F00EFAAB
:1038300010B14FF0FF30DAE7C54A1268917CC44AF4
:103840005268107804AB012202F000FA10B14FF078
:10385000FF30CCE7BE4A1268D17DBD4A526810786D
:1038600004AB012202F0F2F910B14FF0FF30BEE7D5
:10387000B74A12681179B64A5268107804AB01222F
:1038800002F0E4F910B14FF0FF30B0E70C208DF8F2
:103890001000AF4A12681179AD4A5268107804AB33
:1038A000012202F0D3F910B14FF0FF309FE70F2053
:1038B000FCF716FDA648806A407A8DF81000A44AED
:1038C00012689178A24A5268107804AB012202F083
:1038D000BDF910B14FF0FF3089E79D48806A007A4A
:1038E0008DF810009A4A12685178994A52681078F7
:1038F00004AB012202F0AAF910B14FF0FF3076E7D5
:10390000B9F1000F07D09248806A807A40F0E00059
:103910008DF8100004E08E48806A807A8DF81000DF
:103920008B4A126891798A4A5268107804AB012256
:1039300002F08CF910B14FF0FF3058E7B9F1000FE9
:1039400007D08348806AC07A40F0E0008DF810000C
:1039500003E07E48C07A8DF810007D4A1268D17964
:103960007B4A5268107804AB012202F06FF910B163
:103970004FF0FF303BE7B9F1000F02D0C820FCF751
:10398000AFFC40208DF81000714A12681179704A1E
:103990005268107804AB012202F058F910B14FF0D0
:1039A000FF3024E778208DF81000694A12685179B9
:1039B000674A5268107804AB012202F047F910B14F
:1039C0004FF0FF3013E761498889FCF789FC00203C
:1039D0008DF810005E4A126851795D4A526810787D
:1039E00004AB012202F032F910B14FF0FF30FEE6D5
:1039F000574A1268917A564A5268107804AB0222EC
:103A000002F086F910B14FF0FF30F0E69DF811009A
:103A10009DF8101040EA012B0C209BFBF0F0C6B281
:103A20000020A86068602860A06060602060824616
:103A300065E0474A1268D17A454A5268107804AB6B
:103A40000C2202F065F910B14FF0FF30CFE69DF87F
:103A500011009DF8101040EA012000B2ADF80800F6
:103A60009DF813009DF8121040EA012000B2ADF855
:103A70000A009DF815009DF8141040EA012000B2DC
:103A8000ADF80C00BDF90810206808442060BDF9AD
:103A90000A10606808446060BDF90C10A068084412
:103AA000A0609DF817009DF8161040EA012000B2B2
:103AB000ADF800009DF819009DF8181040EA0120AB
:103AC00000B2ADF802009DF81B009DF81A1040EA04
:103AD000012000B2ADF80400BDF9001028680844C8
:103AE0002860BDF90210686808446860BDF90410D8
:103AF000A8680844A8600AF1010000F0FF0AB24576
:103B000097DB1248D0F800C02868C117090441EAC1
:103B10001041070462460023384602F01FFA32467D
:103B20000023CDE9020102F019FA28600748D0F815
:103B300000C06868C117090441EA104107046246E1
:103B40000023384606E0000054E3853F1494000843
:103B5000C400002002F002FA32460023CDE902013F
:103B600002F0FCF96860FE48D0F800C0A868C117F0
:103B7000090441EA1041070462460023384602F076
:103B8000EDF932460023CDE9020102F0E7F9A86021
:103B9000F348D0F804C02168C817000440EA11486F
:103BA0000F04624600233846414602F0D7F93246F8
:103BB0000023CDE9020102F0D1F92060E848D0F8F5
:103BC00004C06068C117090441EA10410704624655
:103BD0000023384602F0C2F932460023CDE9020143
:103BE00002F0BCF96060DE48D0F804C0A068C117DC
:103BF000090441EA1041070462460023384602F0F6
:103C0000ADF932460023CDE9020102F0A7F9A06028
:103C1000A068002804DDA068A0F58030A06003E063
:103C2000A06800F58030A0600020E0E538B50446CB
:103C3000CC4890F82400A04201D1002038BD24B324
:103C4000C84890F8250010B94FF0FF30F6E7002083
:103C5000FEF75EFB0020FEF77DFCC249C88CFEF734
:103C6000DCFE00200090BF49496808786B460122BD
:103C7000232101F0EBFF0121BA4880F82410012034
:103C8000FEF746FBFEF70AFD13E00020FEF740FBBF
:103C9000B448007C0090B349496808786B4601221B
:103CA000232101F0D3FF0021AE4880F82410FEF755
:103CB000F5FC0020C2E72DE9F04F8DB083460F469A
:103CC00002200C90A74890F8240020B10020FFF7B4
:103CD000ADFF012600E0002603A8FFF7E2F905A8E2
:103CE000FFF7FFF901A8FFF720FA02A8FFF742FA51
:103CF0009C4890F80AA004A8FFF796FA002407E071
:103D0000002239465846FFF759FD00B902E0641C0D
:103D1000022CF5DB00BF022C01D1002528E0002495
:103D200007E0012206A909A8FFF748FD00B902E053
:103D3000641C022CF5DB00BF022C01D1002517E02A
:103D400006A93846FFF75CFC00F0FF0809A95846B1
:103D5000FFF7A8FC00F0FF090025B9F1000F01D121
:103D600045F00105B8F1000F01D145F0020500BF93
:103D7000FF207C490872FF217A484172C1724FF6D8
:103D8000FF71C181FF218172017401210173BDF8AE
:103D90000C00FEF7D0FE9DF81400FEF78AFEBDF879
:103DA0000400FEF78EFDBDF80800FEF736FE504613
:103DB000FEF76BFB9DF81000FEF74EFD16B10120DB
:103DC000FFF734FF28460DB0BDE8F08FF8B5044684
:103DD0000D46164616B94FF0FF30F8BD6148807A9F
:103DE00010B94FF0FF30F8E720128DF80000E0B274
:103DF0008DF801009DF8010028445A494968498915
:103E0000884202DD4FF0FF30E7E7564A1268117E24
:103E1000544A526810786B46022201F017FF10B125
:103E20004FF0FF30D9E7EAB24E4B1B68597D4D4B3E
:103E30005B681878334601F009FF10B14FF0FF308E
:103E4000CBE70020C9E7F8B504460D46164616B97B
:103E50004FF0FF30F8BD4348807A10B94FF0FF3083
:103E6000F8E720128DF80000E0B28DF801009DF80F
:103E7000010028443B4949684989884202DD4FF0E6
:103E8000FF30E7E7374A1268117E364A52681078E9
:103E90006B46022201F0DAFE10B14FF0FF30D9E795
:103EA000EAB2304B1B68597D2E4B5B68187833465D
:103EB00001F02EFF10B14FF0FF30CBE70020C9E733
:103EC0002DE9F04385B005460E46904699462548B3
:103ED00090F8250020B14FF0FF3005B0BDE8F08329
:103EE00016B94FF0FF30F8E7002423E0281B102814
:103EF00001DD102000E0281B87B232193946204628
:103F0000FFF764FF10B14FF0FF30E6E701AA394632
:103F10002046FFF798FF10B14FF0FF30DDE7301972
:103F20003A4601A902F0BAF810B16FF00100D4E7E7
:103F3000E01984B2AC42D9DB4FEA28208DF80000AA
:103F400008F0FF008DF80100064A1268917E054ACC
:103F5000526810786B46022201F078FE38B103E017
:103F600014940008C40000204FF0FF30B5E7012191
:103F70008A4880F82510A0F826900020ADE7014679
:103F8000864890F8240008700020704702464FF0E1
:103F9000FF30704701464FF0FF307047F8B50546D7
:103FA0000F461446002C70D0B5F5FF5F01DDFF26EB
:103FB00005E0202D01DA012601E0C5F3471607B917
:103FC0000127282C02DD4FF0FF30F8BD7348407DFB
:103FD00028BB724890F8240038B10020FFF726FE75
:103FE00001216E4880F8201003E000216B4880F822
:103FF00020106A481630FFF754F868481830FFF769
:1040000070F866481A30FFF790F864481C30FFF7E4
:10401000B1F86248817A81771F30FFF705F90020F7
:10402000FEF776F90020FEF78BFC00208DF80000EB
:104030005A4A12689178594A526810786B460122A0
:1040400001F004FE10B14FF0FF30BEE740208DF8C4
:104050000000524A1268D17B504A526810786B4671
:10406000012201F0F3FD00B165E08DF800608DF8EC
:1040700001704A4A1268117A484A526810786B46B1
:10408000022201F0E3FD08B155E047E00520FCF70E
:1040900027F94248407A072101EBC000C0B28DF8F1
:1040A00000003E4A1268D1793C4A526810786B464B
:1040B000012201F0CBFD00B13DE020208DF8000091
:1040C000012C03D100208DF801000EE0052C03DC4B
:1040D00001208DF8010008E0142C03DC02208DF88B
:1040E000010002E003208DF801009DF80100072186
:1040F00001EB8010C0B28DF80100284A1268917C53
:10410000264A526810786B46022201F09FFD00B1EA
:1041100011E0012121484175002056E71F4A16325F
:10412000002103E0505C00B105E0491C0C29F9D3E3
:104130004FF0FF3049E7FF2018490872FF21174868
:104140004172C1724FF6FF71C181FF21817201740A
:10415000012101730146887FFEF797F90F49C88A4C
:10416000FEF7E9FC0D49087EFEF7A3FC0B49488BDE
:10417000FEF7A7FB0949888BFEF74FFC0749C87F6C
:10418000FEF76AFB054890F8200010B10120FFF708
:104190004DFD002101484175002016E7C4000020B4
:1041A00010B5C8234FF48062F74940F6F630FFF7A8
:1041B00087FE10BD10B586B00446F4A000680390D9
:1041C000F3A000680290F3A000680190F2A00068DC
:1041D000009004F0030003A9085C8DF8140003A804
:1041E000C4F3C101405C8DF8150003A8C4F381112C
:1041F000405C8DF8160004F0030002A9085C8DF8FD
:10420000100002A8C4F3C101405C8DF8110002A89F
:10421000C4F38111405C8DF8120005AA032140F21D
:104220002640FFF7D3FD18B14FF0FF3006B010BDA8
:1042300004AA032140F22A40FFF7C8FD10B14FF055
:10424000FF30F3E7019805900098049004F0040013
:1042500058B19DF8140040F001008DF814009DF84D
:10426000100040F001008DF8100004F0200058B15B
:104270009DF8150040F001008DF815009DF8110023
:1042800040F001008DF8110004F4807058B19DF8E1
:10429000160040F001008DF816009DF8120040F065
:1042A00001008DF8120005AA03214FF48860FFF782
:1042B0008DFD10B14FF0FF30B8E704AA032140F2A2
:1042C0003140FFF783FD10B14FF0FF30AEE7B34848
:1042D00004810020AAE71FB50446B048007A00F028
:1042E000030054F820000190AC48007A00F004006C
:1042F00010B1019840420190A848007AC0F3C10073
:1043000054F820000290A548007A00F0200010B177
:10431000029840420290A148007AC0F3811054F8FC
:10432000200003909D48008900F4807010B103982C
:10433000404203909A49019880FB0101800F40EAB6
:10434000810001909649029880FB0110820042EAA8
:10435000917002909249039880FB0110820042EA1A
:10436000917003900198000E8DF800000198000CE8
:104370008DF801000198000A8DF802000198C0B282
:104380008DF803006A4604214FF47470FFF71EFD98
:1043900018B14FF0FF3004B010BD0298000E8DF838
:1043A00000000298000C8DF801000298000A8DF8B8
:1043B00002000298C0B28DF803006A4604214FF44F
:1043C0007570FFF703FD10B14FF0FF30E3E703987E
:1043D000000E8DF800000398000C8DF80100039882
:1043E000000A8DF802000398C0B28DF803006A46F7
:1043F00004214FF47670FFF7E9FCCCE770B588B084
:10440000064601A8FEF7E9FEBDF804000021C90335
:1044100041EA5045C4036148007A00F0030056F8B1
:10442000200005905D48007A00F0040010B1059866
:10443000404205905948007AC0F3C10056F8200068
:1044400006905648007A00F0200010B106984042CD
:1044500006905248007AC0F3811056F82000079069
:104460004E48008900F4807010B1079840420790D0
:104470000598C117A0FB042301FB043100FB0510C4
:10448000810041EA927005900698C117A0FB0423B1
:1044900001FB043100FB0510810041EA9270069097
:1044A0000798C117A0FB042301FB043100FB051092
:1044B000810041EA927007900598000E8DF808007F
:1044C0000598000C8DF809000598000A8DF80A007F
:1044D0000598C0B28DF80B000698000E8DF80C0000
:1044E0000698000C8DF80D000698000A8DF80E0055
:1044F0000698C0B28DF80F000798000E8DF81000D6
:104500000798000C8DF811000798000A8DF812002A
:104510000798C0B28DF8130002AA0C214FF4257041
:10452000FFF754FC08B070BD30B585B004461DA23D
:1045300007CA02AB07C3C82C03DD4FF0FF3005B03C
:1045400030BDC82090FBF4F0401E85B2280A8DF8DB
:104550000000E8B28DF801006A46022140F2162000
:10456000FFF734FC10B14FF0FF30E8E702AA0C214E
:1045700040F6C120FFF72AFC10B14FF0FF30DEE714
:10458000064884810020DAE73C9400084CCD6C009A
:104590000CC92C0036567600264666009805002089
:1045A00009E3CA02FEF2ABC4AAF1DFDFBBAFDFDF73
:1045B0000146FC4880890880002070472DE9FC47AF
:1045C00006460F4606F0070010B1B7F5C86F03DDC9
:1045D0004FF0FF30BDE8FC87384603F097FF814677
:1045E000F14903F049FE80466846FEF77AFD9DF8E2
:1045F0000000022806D0042816D0082826D010284B
:1046000048D135E04FF08D41404603F0C7FF814669
:1046100003F044FF84B2E549404603F0BFFF814602
:1046200003F03CFF85B238E04FF08C41404603F088
:10463000B5FF814603F032FF84B2DD49404603F006
:10464000ADFF814603F02AFF85B226E04FF08B4193
:10465000404603F0A3FF814603F020FF84B2D54912
:10466000404603F09BFF814603F018FF85B214E03B
:104670004FF08A41404603F091FF814603F00EFF60
:1046800084B2CD49404603F089FF814603F006FF1E
:1046900085B202E04FF0FF309CE700BF20128DF89A
:1046A0000400E0B28DF8050028128DF80600E8B28B
:1046B0008DF8070006F00100A0B101AA02214FF415
:1046C000EA70FFF783FB10B14FF0FF3082E70DF186
:1046D000060202214FF49270FFF778FB10B14FF001
:1046E000FF3077E706F00200A0B101AA02214FF4E3
:1046F000EC70FFF76BFB10B14FF0FF306AE70DF184
:10470000060202214FF49470FFF760FB10B14FF0E6
:10471000FF305FE706F00400A0B101AA02214FF4C8
:10472000EE70FFF753FB10B14FF0FF3052E70DF181
:10473000060202214FF49670FFF748FB10B14FF0CC
:10474000FF3047E7002045E738B5044600200090D9
:1047500004F0010020B19DF8000040F0300000900E
:1047600004F0020020B19DF8000040F00C00009021
:1047700004F0040020B19DF8000040F00300009018
:104780006A4601214FF4A470FFF720FB38BD38B50D
:104790000446012C01DA012402E0042C00DD04248B
:1047A000601EC0B200906A46012140F24F10FFF730
:1047B0000DFB38BD38B50446052094FBF0F085B2FA
:1047C00028128DF80000E8B28DF801006A46022137
:1047D0004FF4EF70FFF7FAFA38BD38B504460520FC
:1047E00094FBF0F085B228128DF80000E8B28DF845
:1047F00001006A4602214FF4ED70FFF7E7FA38BD79
:10480000F8B505460E464FF47A7095FBF0F000FBC4
:1048100006F4200E8DF80000200C8DF80100200A0F
:104820008DF80200E0B28DF803006A4604214FF4CF
:10483000AE70FFF7CBFAF8BD38B50446052094FBFF
:10484000F0F084B220128DF80000E0B28DF8010083
:104850006A4602214FF4AD70FFF7B8FA38BD38B59B
:104860000446052094FBF0F084B220128DF800007D
:10487000E0B28DF801006A4602214FF4AC70FFF7F8
:10488000A5FA38BD38B5044614B94FF0FF3038BD2D
:104890006A4604214FF45870FFF7D5FA10B14FF073
:1048A000FF30F4E79DF8000000069DF8011040EA93
:1048B00001409DF8021040EA01209DF803100843D2
:1048C00020600020E3E738B50446200E8DF8000094
:1048D000200C8DF80100200A8DF80200E0B28DF85E
:1048E00003006A4604214FF45870FFF76FFA38BD91
:1048F00038B5044614B94FF0FF3038BD6A4604217C
:104900004FF47170FFF79FFA10B14FF0FF30F4E7EA
:104910009DF8000000069DF8011040EA01409DF856
:10492000021040EA01209DF80310084300EB8000CC
:10493000800020600020E0E738B504461420B4FB76
:10494000F0F4200E8DF80000200C8DF80100200AF4
:104950008DF80200E0B28DF803006A4604214FF49E
:104960007170FFF733FA38BD38B5044664B12020C2
:104970008DF8000028208DF8010030208DF802000D
:1049800038208DF8030004E0A3220421684601F0DA
:10499000B1FB6A46042140F69E20FFF717FAFDF7A7
:1049A0007DFE38BD980500200000484300004046C9
:1049B0000000C045000040450000C04438B5044632
:1049C00064B1C0208DF80000C2208DF80100C42021
:1049D0008DF80200C6208DF8030004E08B2204212C
:1049E000684601F087FB6A46042140F69820FFF7ED
:1049F000EDF9FDF753FE38BD3EB504466CB1FDA19F
:104A0000D1E900208968CDE9002002916A46092198
:104A10004FF49760FFF7DAF93EBDF9A2D2E9001032
:104A20009268CDE9010200916A4609214FF497602E
:104A3000FFF7CCF9F0E73EB5044602208DF8000000
:104A4000CA208DF80100E3208DF8020009208DF8BE
:104A500003006A4604216820FFF7B8F9A3208DF807
:104A6000000004F0400048B1C0208DF80100C820CB
:104A70008DF80200C2208DF8030006E0A3208DF817
:104A800001008DF802008DF8030004F4C07048B1F5
:104A9000C4208DF80400CC208DF80500C6208DF8C8
:104AA000060006E0A3208DF804008DF805008DF8BF
:104AB0000600A3208DF807008DF808008DF8090086
:104AC0006A460A2140F6A720FFF780F904F00300A8
:104AD00018B120208DF8000002E0D8208DF80000E9
:104AE0006A46012140F6B620FFF770F904F0200075
:104AF00018B10120FFF780FF02E00020FFF77CFFE4
:104B000004F4C07008B304F4807060B1B2208DF872
:104B100000008B208DF80100B6208DF802009B204C
:104B20008DF803000BE0B0208DF8000080208DF898
:104B30000100B4208DF8020090208DF803006A4631
:104B4000042140F6A220FFF741F904F0010020B350
:104B5000F8208DF800006A4601214FF40B60FFF742
:104B600035F9FA210720FFF729FD0720FFF7ECFDB3
:104B70000120FFF70CFE6420FFF71CFE4FF4FA70D3
:104B8000FFF72BFEC821A148FFF73AFE2820FFF7C8
:104B900053FE0A20FFF763FE08E0D8208DF80000DE
:104BA0006A4601214FF40B60FFF710F904F0020090
:104BB00018B1D9208DF8000002E0D8208DF800004F
:104BC0006A46012140F23D70FFF700F904F004004D
:104BD00018B10120FFF7F2FE02E00020FFF7EEFE21
:104BE00004F0100018B10120FFF7BEFE02E0002023
:104BF000FFF7BAFE44F0080085494881FDF74EFDF5
:104C000000208349887304F0400018B10846807B77
:104C1000801D887304F4C07020B17D48807B801DA6
:104C20007B49887304F0140020B17948807B1030F0
:104C30007749887304F0030020B17548807B001D1C
:104C40007349887300203EBD014671484089088041
:104C5000002070472DE9F0410446E07800F0C006DE
:104C6000E07800F03F05607800F0010098B1EF10A7
:104C70002846E91705EB5171C910A5EBC101491C84
:104C800001F0FF086248006820B1614841460268AF
:104C90003846904700BF607800F0080030B15C48AB
:104CA000406818B1B0115A4A516888470020BDE8E1
:104CB000F08110B586B0044656A207CA03AB07C3FD
:104CC00057A207CA8DE80700012C09D0022C0ED18B
:104CD00003AA0B2140F68220FFF778F806B010BD3A
:104CE0006A460B2140F68220FFF770F8F6E74FF096
:104CF000FF30F3E72DE9F04F8DB0074688461546A3
:104D00009946DDE9166B0024002030804049887BFD
:104D10005A4605A9FEF7BDFB18B1601E0DB0BDE8EF
:104D2000F08F3B48807A00F01400002861D09DF895
:104D3000140000069DF8151040EA01409DF8161079
:104D400040EA01209DF81710084328609DF81800DC
:104D500000069DF8191040EA01409DF81A1040EA3B
:104D600001209DF81B10084368609DF81C00000698
:104D70009DF81D1040EA01409DF81E1040EA0120F8
:104D80009DF81F100843A8609DF8200000069DF8BC
:104D9000211040EA01409DF8221040EA01209DF8D0
:104DA00023100843E86004F11000C4B2286800141E
:104DB0000190686800140290A86800140390E868E5
:104DC0000014049001984043029901FB01000399EB
:104DD00001FB0100049901FB010ABAF1706F02DBCB
:104DE000BAF1885F22DDFDF759FC00203080401EBB
:104DF00094E721E0B8AAB38DB4980D355D000000AA
:104E0000B8AAAAAAB088C3C5C700000009E3CA02AD
:104E100098050020D8B1B9F38BA391B609B4D90095
:104E2000DAB1B9F38BA391B6DAB4DA00B6F90000BF
:104E300040F48070308000BF3448807A00F0400039
:104E400020B305A9601C085C095D40EA012000B29E
:104E5000A8F8000005A9E01C095C05AAA01C105CCC
:104E600041EA002000B2A8F8020005A9601D095C13
:104E7000201D105C41EA002000B2A8F80400A01D2B
:104E8000C4B2B6F9000040F0080030801F484089E5
:104E900000F4C07008B305A9601C085C095D40EA15
:104EA000012000B2388005A9E01C095C05AAA01CFD
:104EB000105C41EA002000B2788005A9601D095C01
:104EC000201D105C41EA002000B2B880A01DC4B2D1
:104ED000B6F9000040F0700030800C48807A00F095
:104EE000030018B105A90819FFF7B4FE4846FDF7FD
:104EF00034FF002012E7014604480160002070479B
:104F000001460248416000207047000098050020DB
:104F100038B5FC49FC48006803F00CFC05D2FBA244
:104F200000210846FBF7FFFD04E0FBA20021084634
:104F3000FBF7F9FDF448006803F0B0FA04460C20D2
:104F400002232246002100905F20FBF7A2FDF5A27C
:104F500014210020FBF7E7FD0021F548006803F06D
:104F6000E9FA15D2F3A214215020FBF7DCFDF0483A
:104F7000006880F00045284603F090FA04460C20B3
:104F800003232246142100905F20FBF782FD11E0ED
:104F9000E9A214215020FBF7C6FDE548006803F0A4
:104FA0007DFA04460C2003232246142100905F2042
:104FB000FBF76FFDE1A20A210020FBF7B4FD002101
:104FC000E148006803F0B6FA15D2DAA20A215020AF
:104FD000FBF7A9FDDC48006880F00045284603F097
:104FE0005DFA04460C20032322460A2100905F202C
:104FF000FBF74FFD11E0D0A20A215020FBF793FDF3
:10500000D148006803F04AFA04460C2003232246E4
:105010000A2100905F20FBF73CFDCCA21E2100205E
:10502000FBF781FD0021CB48006803F083FA15D21D
:10503000C0A21E215020FBF776FDC648006880F014
:105040000045284603F02AFA04460C200323224692
:105050001E2100905F20FBF71CFD11E0B6A21E216F
:105060005020FBF760FDBB48006803F017FA0446C8
:105070000C20032322461E2100905F20FBF709FD30
:10508000B5A228210020FBF74EFDB5A228213A2029
:10509000FBF749FDB3A228215020FBF744FDB2489D
:1050A0000068642190FBF1F40C20022322462821A1
:1050B00000902D20FBF7EDFCAB480068642190FBCD
:1050C000F1F201FB12040C20022322462821009059
:1050D0004420FBF7DEFCA4480068642190FBF1F259
:1050E00001FB12000A2807DA0C20022300222821E3
:1050F00000903E20FBF7CDFC9CA232210020FBF764
:1051000012FD00219B48006803F014FA11D29A495D
:105110009848006803F042F8054603F0BFF90446DA
:105120000C2003232246322100902820FBF7B1FCFB
:105130000CE09048006803F0B1F904460C2003230A
:105140002246322100902820FBF7A3FC8BA23221BB
:105150004620FBF7E8FC00218A48006803F0EAF9E2
:1051600011D285498748006803F018F8054603F016
:1051700095F904460C200323224632210090672033
:10518000FBF787FC0CE07F48006803F087F90446D2
:105190000C2003232246322100906720FBF779FC84
:1051A000FBF797FB38BD2DE9F04786B06E480068E5
:1051B000A0F256404000032190FBF1FABAF1000F33
:1051C00001DA4FF0000ABAF1640F01DD4FF0640A12
:1051D0005D48006802F0B6FF07466B4A6B4B02F071
:1051E000B3FA054602F008FC8146B9F1000F01DA76
:1051F000C9F100095448006802F0A4FF0546624A5C
:10520000624B02F0A1FA074602F0F6FB0446002CBE
:1052100000DA64425E48007808B9012000E000200E
:105220005B4908705B480078012824D15A4800681F
:1052300003F018F905465948006803F013F90646CB
:105240005748006803F00EF907465648006803F017
:1052500009F980460020029003900490059033469F
:105260003A464146CDE900504FA000F09BFE002099
:105270004849087025E04648007868B93D4800680C
:1052800003F0F0F8054609F0FF02E1B25346009042
:105290004DA000F087FE14E02548006803F0E2F816
:1052A00005462948006803F0DDF8064631480068E5
:1052B00003F0D8F807462B463246394646A000F0A0
:1052C00071FE06B0BDE8F08710B5012129480068DD
:1052D00000F0BEF802211C48006800F0B9F8032174
:1052E0001348006800F0B4F804211A48006800F080
:1052F000AFF8042000F0FBF83B49087000203B4960
:10530000087088E0000070421C00002048494748AF
:1053100020535045454400004C4F572020535045E2
:1053200045440000456E632D57616C6B0000000022
:10533000080000202D0000002B000000456E632DAA
:1053400042616C6100000000040000205345525689
:105350004F00000018000020566F6C7461000000C0
:105360002E0000005600000020000020416E676CF7
:1053700065000000280000200000B443494E495455
:105380000000000048000020CDCCCCCCCCCCF43FB9
:10539000F800002026000020400000203C000020F3
:1053A00038000020340000207B4325643A25643A0D
:1053B00025643A25643A25643A25643A25643A25F9
:1053C000643A25647D2400007B4125643A25643AD3
:1053D00025643A25647D24007B4225643A25643A9D
:1053E00025647D2400000000F1000020F000002072
:1053F00000BF0C48008800F040000028F9D00A489F
:105400000A490978405C0749091D08800748007867
:10541000401C06490870054800780549097888420B
:10542000E6DB10BD00380140A8050020F000002098
:10543000F100002030B503461C788C545D78541C74
:105440000D559D78941C0D55DD78D41C0D5530BD3F
:1054500013B50C460A2C00DC04B91CBD0B2C43D23E
:10546000DFE804F042060C12181E242A30363C00F5
:10547000012244496846FFF7DDFF35E00522414936
:105480006846FFF7D7FF2FE009223E496846FFF73D
:10549000D1FF29E00D223B496846FFF7CBFF23E00F
:1054A000112238496846FFF7C5FF1DE0152235492E
:1054B0006846FFF7BFFF17E0192232496846FFF739
:1054C000B9FF11E01D222F496846FFF7B3FF0BE03B
:1054D00021222C496846FFF7ADFF05E02522294926
:1054E0006846FFF7A7FF00BF00BF00BFB5E7014652
:1054F0000A2900DC09B9002070472420214A1070D5
:105500000B293CD2DFE801F03B060B10151A1F24D3
:10551000292F350005201B4A50710620ECE7092091
:10552000184A50720A20E7E70D20164A50730E20E1
:10553000E2E71120134A50741220DDE71520114ACA
:1055400050751620D8E719200E4A50761A20D3E756
:105550001D200C4A50771E20CEE72120094A82F8F0
:1055600021002220C8E72520064A82F825002620AF
:10557000C2E72920034A82F829002A20BCE700203C
:10558000BAE70000A80500202DE9F05F05460E46A9
:10559000300102F0BBFF8146A24905FB01F002F099
:1055A000B5FF8246494602F067FE0746384602F0DC
:1055B00075FF84B2204602F0A9FF8346394603F006
:1055C000EAF882464FF0834102F0E8FF814602F09C
:1055D00065FF80464FF6FF7000EA041404EB0800F4
:1055E00084B29148806940F004008F498861084680
:1055F000C06940F40030C8618C48006820F47F40E6
:105600008A4908600846006840F40B4008608748F3
:105610000C30006840F4806084490C310860824896
:10562000006940F48020804908610846006920F440
:10563000802008617E480480001D008842F20C0131
:1056400008437B49091D08800846008840F48070A3
:1056500008800846008840F02000088002232622A7
:1056600001210020FAF774FEBDE8F09F2DE9FF5FED
:105670006F480838008800F0200000287ED06C4871
:10568000001F00886B49087008460078592803D12C
:1056900069486A49086006E066480078582802D1DF
:1056A00067486649086063480078412809DB61481B
:1056B0000078482805DC5F48007840386149087068
:1056C0000BE05C480078082804DC5A4800785D4903
:1056D000087002E000205B490870564800787B287B
:1056E00002D1012058490870524800787D2802D123
:1056F0000220554908705448007801280AD14D48C5
:1057000000785249524A1278885451480078401C17
:105710004F4908704C48007802287ED14B48C07829
:10572000502803D101204B49087069E04748407870
:10573000232865D0464800784749087036E0444938
:105740000978454A1278881A02F085F9804642465F
:105750000B460020414901F0F7F904460D463E4949
:105760000978491E394A515CA1F1300002F073F901
:10577000064622462B4602F0D5F900E04DE082466F
:105780008B463748006802F0DDFC52465B46CDE9A7
:10579000000101F01DFFCDE9020101F0E7FE3049F3
:1057A00008602D480078401E2B4908702A48007870
:1057B0000428C4DA25484078303809281FD2DFE8A9
:1057C00000F0050A0F14191A1B1C1D00244800685C
:1057D0002449086013E022480068234908600EE06D
:1057E0001F4800682149086009E01D4800682049F9
:1057F000086004E003E002E001E000E000BF00BF59
:1058000000201149087012490870134908701449A2
:10581000086032210D4800F075FC002004B0BDE89E
:10582000F09F000040420F000010024000080140BD
:1058300008440040FC00002000000C421C00002036
:1058400000008C4202000020FD000020D205002054
:10585000FE00002026000020FF0000200000244061
:105860000001002034000020380000203C0000200F
:10587000400000206D48806940F008006B49886155
:105880006B48006820F0FF0069490860674880693C
:1058900040F40070654988610846C06840F40070B3
:1058A000C8600846C06820F40070C86008464068B8
:1058B00020F4404048600846406840F4004048609A
:1058C0005C4800685C4908405A490860084600681E
:1058D00008600846006820F480700860081D0068B1
:1058E00020F00200091D08600846006820F46020CE
:1058F00008600846006840F46020086008460068B8
:1059000040F4801008600846006820F400600860D9
:1059100048482830006820F4700046492831086063
:10592000084600680020086042480C30006820F0FB
:10593000704040490C3108600846006840F0E06063
:1059400008603C48001D006840F001003949091D0D
:1059500008600846006840F00800086000BF35484D
:10596000001D006800F008000028F8D13148001D33
:10597000006840F004002F49091D086000BF2D4851
:10598000001D006800F004000028F8D170470146AF
:1059900028483030006820F01F00264A303210605E
:1059A00010460068084310602248001D006840F45B
:1059B0008000204A121D106000BF1E48001F0068B2
:1059C00000F002000028F8D01A484830006880B281
:1059D00070472DE9F04F87B00820FFF7D8FF0190FE
:1059E00002F050F880464FF06632144B02F09AF8FD
:1059F0000022134BCDE9020102F094F80022114B72
:105A0000CDE9040102F08EF8064600220E4B01F0AB
:105A10009BFE044600220D4B01F096FE824601F0EB
:105A2000EBFF0690069807B0BDE8F08F001002402B
:105A3000000C014004240140FFFFF00066660A40AC
:105A400000002640000059400000F03F0000B04038
:105A5000F748806940F00800F5498861F54800681A
:105A600020F47F40F34908600846006840F44C5039
:105A70000860704710B5EF48006820F47040ED49A9
:105A800008600846006840F4405008600120EA4978
:105A90000860EA48D0F82C0108B9002010BD0120A8
:105AA000E549091F0860FAF7FFFB0020E349C1F848
:105AB000AC01E1488038006808B10020EEE7012021
:105AC000FAF7F2FB0020DC49091F08600120E5E736
:105AD00010B5D848006820F47040D64908600846E0
